:1000000071C0000014C100008CC000008AC0000054
:1000100088C0000086C0000084C0000082C00000CC
:1000200080C000007EC000007CC000007AC00000DC
:1000300078C0000076C0000074C0000072C00000EC
:1000400070C000006EC000006CC000006AC00000FC
:1000500068C00000A7C0000064C0000062C00000CB
:1000600060C000005EC000005CC000005AC000001C
:1000700058C0000056C0000054C0000052C000002C
:1000800050C000004EC000004CC000004AC000003C
:1000900048C0000046C0000044C0000042C000004C
:1000A00040C000003EC000003CC000003AC000005C
:1000B00038C0000036C0000034C0000032C000006C
:1000C00030C000002EC000002CC000002AC000007C
:1000D00028C0000026C0000024C0000022C000008C
:1000E00020C0000011241FBECFEFD1E2DEBFCDBF84
:1000F00000E00CBF12E0A0E0B2E0EAE6FAE000E0C7
:100100000BBF02C007900D92A639B107D9F722E0C4
:10011000A6E9B2E001C01D92A93EB207E1F7C6D040
:10012000A2C46ECFFC019191992339F08091C00057
:1001300085FFFCCF9093C600F6CF08951F920F92D3
:100140000FB60F9211240BB60F922F933F934F933C
:100150008F939F93EF93FF938091E5029091E60236
:100160009C012F5F3F4F3093E6022093E5024091C0
:10017000C600FC01EF52FD4F40832330310521F4CE
:100180001092E6021092E502FF91EF919F918F91FC
:100190004F913F912F910F900BBE0F900FBE0F907C
:1001A0001F9018951F920F920FB60F9211240BB645
:1001B0000F922F933F934F935F936F937F938F9300
:1001C0009F93AF93BF93EF93FF938091CF02909152
:1001D000D0020196803127E2920729F09093D00255
:1001E0008093CF0211C01092D0021092CF02809162
:1001F000CD029091CE0201969093CE028093CD02D3
:100200004AE067EA72E0F9D1FF91EF91BF91AF91B7
:100210009F918F917F916F915F914F913F912F911E
:100220000F900BBE0F900FBE0F901F9018951F924E
:100230000F920FB60F9211240BB60F922F933F938C
:100240004F935F936F937F938F939F93AF93BF93DE
:10025000EF93FF9381E092E065DF8091E702909158
:10026000E802892B19F482E085BD03C081E0809308
:10027000A6028091E7029091E80201969093E8022D
:100280008093E702FF91EF91BF91AF919F918F9182
:100290007F916F915F914F913F912F910F900BBE86
:1002A0000F900FBE0F901F90189508951092C500E3
:1002B00088E68093C40088E98093C10086E080933B
:1002C000C2001092D1021092D2021092D3028AB1CF
:1002D0008A608AB98BB1857F8BB984E08BB982E063
:1002E0008093690091E09DBB84BD15BC97EC97BDE0
:1002F00080936E0083E88093B00087E08093B10024
:100300001092B30080E480937C0087E880937A00A9
:1003100010927B00789484E6D82E9AE0C92E02E0F1
:1003200010E023E0E22EF12CBB24B3948091000274
:10033000882309F4BFC087E092E0F4DE8091A40234
:100340009091A502892B09F051C02FEF83ED90E326
:10035000215080409040E1F700C000008091D10220
:10036000082E000C990BC097D89EE001D99ED00DA5
:1003700011248091D202082E000C990BC097C89EC0
:100380009001C99E300D1124C20FD31F8091D3025A
:10039000082E000C990BC097C80FD91FD093A30249
:1003A000C093A202CE01845691098438934030F65E
:1003B00081ED92E0B7DE89E692E0B4DE8091A4029E
:1003C0009091A50201969093A5028093A402D093E8
:1003D000A102C093A0021092D1021092D2021092F8
:1003E000D3021092A3021092A202A8CF1092E602AA
:1003F0001092E5028DE192E095DE8091A402909149
:10040000A502019709F054C08FEF93ED20E38150CE
:1004100090402040E1F700C000008091D102082EFA
:10042000000C990BC097D89EE001D99ED00D1124E5
:100430008091D202082E000C990BC097C89E9001A3
:10044000C99E300D1124C20FD31F8091D302082EF4
:10045000000C990BC097C80FD91FD093A302C0936B
:10046000A202CE01845691098438934030F689E681
:1004700092E058DE81ED92E055DE89E692E052DEB0
:100480008091A4029091A50201969093A502809379
:10049000A402D0939F02C0939E021092D1021092A8
:1004A000D2021092D3021092A3021092A202A5CF00
:1004B000109200028091A0029091A10260919E0290
:1004C00070919F02BCD280E090E0C8D160939A0204
:1004D00070939B0280939C0290939D0220E030E0F9
:1004E00048EC52E449D220E030E041EE53E41DD123
:1004F00084D16093B30082E492E014DE4091A602BE
:100500008091960290919702A0919802B0919902E1
:10051000411101C0FFCF8093960290939702A09360
:100520009802B093990215BC1092E8021092E7026B
:100530001092CE021092CD021092A60284E592E0B3
:10054000F1DD40909A0250909B0260909C02709066
:100550009D02A30192016091960270919702809191
:100560009802909199027CD0A3019201DED020E004
:1005700030E048EC52E400D240D1DC01CB014AE04B
:1005800067EA72E03AD080E692E0CCDD87EA92E05A
:10059000C9DD87E692E0C6DD1093A5020093A402B0
:1005A0008BE692E0BFDD8091A4029091A5020297B4
:1005B000D1F48091D102833751F481ED92E0B2DD24
:1005C0001092A5021092A402B0920002ECCF8E36D7
:1005D00051F781ED92E0A6DDF092A502E092A4022F
:1005E00010920002E0CF89E692E09CDD1092D102E9
:1005F0001092D2021092D30299CEBB274A3031F426
:10060000992322F4BDE2909581959F4F01C0BB27AD
:10061000FB015527AA27880F991FAA1FA41710F0BE
:10062000A41B83955051B9F7A05DAA3308F0A95DCA
:10063000A193009779F7B111B1931192CB0100C04A
:10064000DC01FC01672F71917723E1F7329704C039
:100650007C916D9370836291AE17BF07C8F30895C4
:100660005058BB27AA270ED04DC13ED130F043D100
:1006700020F031F49F3F11F41EF433C10EF4E095E5
:10068000E7FB29C1E92F4FD180F3BA17620773073F
:100690008407950718F071F49EF567C10EF4E09594
:1006A0000B2EBA2FA02D0B01B90190010C01CA012C
:1006B000A0011124FF27591B99F0593F50F4503ED7
:1006C00068F11A16F040A22F232F342F4427585FC9
:1006D000F3CF469537952795A795F0405395C9F7E1
:1006E0007EF41F16BA0B620B730B840BBAF0915099
:1006F000A1F0FF0FBB1F661F771F881FC2F70EC038
:10070000BA0F621F731F841F48F48795779567950A
:10071000B795F7959E3F08F0B3CF9395880F08F0F3
:100720009927EE0F9795879508950CD0EBC0E3D0ED
:1007300040F0DAD030F021F45F3F19F0CCC0511115
:1007400015C1CFC0F0D098F39923C9F35523B1F365
:10075000951B550BBB27AA2762177307840738F030
:100760009F5F5F4F220F331F441FAA1FA9F333D08F
:100770000E2E3AF0E0E830D091505040E695001C43
:10078000CAF729D0FE2F27D0660F771F881FBB1FFF
:10079000261737074807AB07B0E809F0BB0B802DD9
:1007A000BF01FF2793585F4F2AF09E3F510568F025
:1007B00092C0DCC05F3FECF3983EDCF38695779502
:1007C0006795B795F7959F5FC9F7880F911D969527
:1007D000879597F90895E1E0660F771F881FBB1F83
:1007E000621773078407BA0720F0621B730B840B30
:1007F000BA0BEE1F88F7E095089504D06894B11104
:10080000B5C0089598D088F09F5790F0B92F9927D8
:10081000B751A0F0D1F0660F771F881F991F1AF00B
:10082000BA95C9F712C0B13081F09FD0B1E00895F8
:100830009CC0672F782F8827B85F39F0B93FCCF379
:10084000869577956795B395D9F73EF49095809501
:10085000709561957F4F8F4F9F4F0895E89409C021
:1008600097FB3EF490958095709561957F4F8F4FE3
:100870009F4F9923A9F0F92F96E9BB279395F695F9
:10088000879577956795B795F111F8CFFAF4BB0F77
:1008900011F460FF1BC06F5F7F4F8F4F9F4F16C0DB
:1008A000882311F096E911C0772321F09EE8872F65
:1008B000762F05C0662371F096E8862F70E060E021
:1008C0002AF09A95660F771F881FDAF7880F96959A
:1008D000879597F9089597F99F6780E870E060E041
:1008E00008959FEF80EC089500240A9416161706C9
:1008F00018060906089500240A9412161306140611
:1009000005060895092E0394000C11F4882352F073
:10091000BB0F40F4BF2B11F460FF04C06F5F7F4F2B
:100920008F4F9F4F089557FD9058440F551F59F012
:100930005F3F71F04795880F97FB991F61F09F3FCC
:1009400079F087950895121613061406551FF2CFF5
:100950004695F1DF08C0161617061806991FF1CF45
:1009600086957105610508940895E894BB2766276C
:100970007727CB0197F908950BD0C4CFB5DF28F0C6
:10098000BADF18F0952309F0A6CFABCF1124EECF34
:10099000CADFA0F3959FD1F3950F50E0551F629FDA
:1009A000F001729FBB27F00DB11D639FAA27F00DC8
:1009B000B11DAA1F649F6627B00DA11D661F829FEF
:1009C0002227B00DA11D621F739FB00DA11D621FD4
:1009D000839FA00D611D221F749F3327A00D611DF1
:1009E000231F849F600D211D822F762F6A2F1124D3
:1009F0009F5750408AF0E1F088234AF0EE0FFF1F26
:100A0000BB1F661F771F881F91505040A9F79E3F5C
:100A1000510570F060CFAACF5F3FECF3983EDCF356
:100A2000869577956795B795F795E7959F5FC1F799
:100A3000FE2B880F911D9695879597F90895AA1B0F
:100A4000BB1B51E107C0AA1FBB1FA617B70710F0B9
:100A5000A61BB70B881F991F5A95A9F780959095EB
:0A0A6000BC01CD010895F894FFCF0A
:100A6A000148656C6C6F00456E74726520636F6D2A
:100A7A00206F20566F6C756D653A200A00456E74BA
:100A8A00726520636F6D206F2054656D706F204909
:100A9A006E667573616F20656D206D696E75746F12
:100AAA007300446574656374617220676F7461735F
:100ABA002E2E2E005061726F7520676F746173005D
:100ACA004572726F3A200025200A00446573656AF0
:100ADA006120616C7465726172206F732064616455
:100AEA006F7320696E73657269646F735B732F6EBF
:060AFA005D3F200A000030
:00000001FF
