:100000000C9434000C94D1000C9451000C945100C9
:100010000C9451000C9451000C9451000C9451001C
:100020000C9451000C9451000C9451000C9451000C
:100030000C9451000C9451000C948F000C945100BE
:100040000C9451000C9451000C945F000C945100DE
:100050000C9451000C9451000C9451000C945100DC
:100060000C9451000C94510011241FBECFEFD8E026
:10007000DEBFCDBF12E0A0E0B1E0ECE7FCE002C0E3
:1000800005900D92A630B107D9F722E0A6E0B2E0C4
:1000900001C01D92AD35B207E1F70E941E010C941C
:1000A0003C060C940000FC019191992339F0809159
:1000B000C00085FFFCCF9093C600F6CF08951F9235
:1000C0000F920FB60F9211242F933F934F938F935C
:1000D0009F93EF93FF9380915B0290915C029C0150
:1000E0002F5F3F4F30935C0220935B024091C6002C
:1000F000FC01E95BFD4F40832330310521F4109270
:100100005C0210925B02FF91EF919F918F914F9152
:100110003F912F910F900FBE0F901F9018951F9237
:100120000F920FB60F9211242F933F934F935F932B
:100130006F937F938F939F93AF93BF93EF93FF93AF
:1001400080914502909146020196803127E2920704
:1001500029F0909346028093450212C01092460205
:10016000109245028091430290914402019690932F
:100170004402809343024AE06DE172E00E94BA03B8
:10018000FF91EF91BF91AF919F918F917F916F916F
:100190005F914F913F912F910F900FBE0F901F9045
:1001A00018951F920F920FB60F9211242F933F9321
:1001B0004F935F936F937F938F939F93AF93BF936F
:1001C000CF93DF93EF93FF9380911B0290911C02DA
:1001D000892B19F482E085BD03C081E080931A0267
:1001E000C0911B02D0911C022196D0931C02C09397
:1001F0001B0281E091E00E9453004AE06DE172E051
:10020000CE010E94BA038DE192E00E94530084E087
:1002100092E00E945300FF91EF91DF91CF91BF9147
:10022000AF919F918F917F916F915F914F913F918E
:100230002F910F900FBE0F901F9018951092C50030
:1002400088E68093C40088E98093C10086E08093AB
:10025000C2001092470210924802109249028AB1DD
:100260008A608AB98BB1857F8BB95A9A82E0809374
:10027000690091E09DBB84BD15BC97EC97BD809350
:100280006E0083E88093B00087E08093B100109205
:10029000B30080E480937C0087E880937A0010921A
:1002A0007B00789494E6D92E2AE0C22E02E010E07A
:1002B00033E0E32EF12CAA24A39485E0B82E80919C
:1002C0000001882309F4C6C08CE091E00E9453002D
:1002D0008091180290911902892B09F053C02FEFD9
:1002E00083ED90E3215080409040E1F700C0000092
:1002F00080914702082E000C990BC097D89EE00110
:10030000D99ED00D112480914802082E000C990B23
:10031000C097C89E9001C99E300D1124C20FD31FF3
:1003200080914902082E000C990BC097C80FD91F65
:10033000D0931702C0931602CE01845691098438D7
:10034000934030F687E492E00E94530084E092E00C
:100350000E94530080911802909119020196909387
:10036000190280931802D0931502C09314021092C0
:1003700047021092480210924902109217021092FE
:100380001602A6CF10925C0210925B0282E291E00C
:100390000E9453008091180290911902019709F070
:1003A00057C08FEF93ED20E3815090402040E1F75C
:1003B00000C0000080914702082E000C990BC097E6
:1003C000D89EE001D99ED00D112480914802082EBC
:1003D000000C990BC097C89E9001C99E300D112446
:1003E000C20FD31F80914902082E000C990BC097B1
:1003F000C80FD91FD0931702C0931602CE0184569E
:1004000091098438934030F684E092E00E945300D2
:1004100087E492E00E94530084E092E00E9453003F
:10042000809118029091190201969093190280937D
:100430001802D0931302C093120210924702109236
:100440004802109249021092170210921602A2CF8F
:100450001092000180911402909115026091120295
:10046000709113020E942806EB0180E090E00E9448
:10047000090560930E0270930F028093100290930F
:1004800011024AE06DE172E0CE010E94BA0387E4F6
:1004900091E00E9453008DE192E00E94530084E0BD
:1004A00092E00E94530020E030E048EC52E460917A
:1004B0000E0270910F0280911002909111020E9421
:1004C000BB0520E030E041EE53E40E9461040E944D
:1004D000D3046093B30088E591E00E9453008091BB
:1004E0001A0281116BC080911B0290911C0202972D
:1004F00008F458C08FEF93ED20E3815090402040E6
:10050000E1F700C0000080911B0290911C026091F5
:100510004302709144020E94280680E090E00E940D
:1005200009052DEC3CEC4CE45DE30E94BB056093B7
:100530000A0270930B0280930C0290930D020E94AA
:10054000D304DC01CB014AE06DE172E00E94BA0302
:100550008AE691E00E9453008DE192E00E945300F0
:100560008CE791E00E9453004AE06DE172E08091D7
:100570001B0290911C020E94BA038DE192E00E943E
:10058000530089E891E00E9453004AE06DE172E077
:1005900080914302909144020E94BA038DE192E05F
:1005A0000E9453008FEF93ED20E381509040204054
:1005B000E1F700C0000085E991E08FCF15BC1092F3
:1005C0001C0210921B0210924402109243021092DD
:1005D0001A0284EA91E00E94530084E092E00E94B3
:1005E000530040900E0250900F02609010027090E5
:1005F0001102A301920160910A0270910B02809195
:100600000C0290910D020E94EF03A30192010E943F
:10061000610420E030E048EC52E40E94BB050E94F7
:10062000D304DC01CB014AE06DE172E00E94BA0321
:1006300081EB91E00E9453008DE192E00E94530013
:1006400088EB91E00E945300109319020093180266
:100650008CEB91E00E945300809118029091190256
:100660000297E1F480914702833759F487E492E0DE
:100670000E9453001092190210921802A0920001D9
:10068000EBCF8E3649F787E492E00E945300F09258
:100690001902E092180210920001DECF84E092E08D
:1006A0000E94530010924702109248021092490291
:1006B00080917C00887F816080937C0080917A00AB
:1006C000806480937A0080917A0086FDFCCF8091CF
:1006D000780090917900B89EB001B99E700D1124F8
:1006E00080E090E00E94090520E030EC4FE754E400
:1006F0000E94610420E030E040EA51E40E94BB0522
:1007000020E030E040EA50E40E9461046093060279
:100710007093070280930802909309020E94D30409
:10072000DC01CB014AE06DE172E00E94BA0386EE83
:1007300091E00E9453008DE192E00E94530084E01A
:1007400092E00E94530020E030E040EA50E46091E3
:1007500006027091070280910802909109020E949E
:100760005C0487FFACCD5A9A17BC81EF91E00E94E0
:100770005300A1CDBB274A3031F4992322F4BDE2C6
:10078000909581959F4F0C94C603BB27FB0155277D
:10079000AA27880F991FAA1FA41710F0A41B8395DE
:1007A0005051B9F7A05DAA3308F0A95DA193009755
:1007B00079F7B111B1931192CB010C94DF03DC01F5
:1007C000FC01672F71917723E1F7329704C07C9188
:1007D0006D9370836291AE17BF07C8F308955058A8
:1007E000BB27AA270E9407040C9481050E94730569
:1007F00038F00E947A0520F039F49F3F19F426F46E
:100800000C9470050EF4E095E7FB0C946A05E92F53
:100810000E94920558F3BA17620773078407950779
:1008200020F079F4A6F50C94B4050EF4E0950B2EA7
:10083000BA2FA02D0B01B90190010C01CA01A00132
:100840001124FF27591B99F0593F50F4503E68F18D
:100850001A16F040A22F232F342F4427585FF3CFCE
:10086000469537952795A795F0405395C9F77EF49F
:100870001F16BA0B620B730B840BBAF09150A1F0E8
:10088000FF0FBB1F661F771F881FC2F70EC0BA0F6E
:10089000621F731F841F48F4879577956795B795F6
:1008A000F7959E3F08F0B0CF9395880F08F09927F1
:1008B000EE0F9795879508950E94460508F481E00C
:1008C00008950E9475040C9481050E947A0558F0E1
:1008D0000E94730540F029F45F3F29F00C946A05EB
:1008E00051110C94B5050C9470050E94920568F3A3
:1008F0009923B1F3552391F3951B550BBB27AA27D9
:1009000062177307840738F09F5F5F4F220F331F12
:10091000441FAA1FA9F335D00E2E3AF0E0E832D0DA
:1009200091505040E695001CCAF72BD0FE2F29D0DD
:10093000660F771F881FBB1F261737074807AB07AF
:10094000B0E809F0BB0B802DBF01FF2793585F4F24
:100950003AF09E3F510578F00C946A050C94B50569
:100960005F3FE4F3983ED4F3869577956795B79506
:10097000F7959F5FC9F7880F911D9695879597F911
:100980000895E1E0660F771F881FBB1F621773078A
:100990008407BA0720F0621B730B840BBA0BEE1F9F
:1009A00088F7E09508950E94DA046894B1110C94D8
:1009B000B50508950E949A0588F09F5798F0B92FC1
:1009C0009927B751B0F0E1F0660F771F881F991F84
:1009D0001AF0BA95C9F714C0B13091F00E94B4056D
:1009E000B1E008950C94B405672F782F8827B85F7D
:1009F00039F0B93FCCF3869577956795B395D9F7DC
:100A00003EF490958095709561957F4F8F4F9F4FE5
:100A10000895E89409C097FB3EF4909580957095F1
:100A200061957F4F8F4F9F4F9923A9F0F92F96E93A
:100A3000BB279395F695879577956795B795F111AF
:100A4000F8CFFAF4BB0F11F460FF1BC06F5F7F4F4C
:100A50008F4F9F4F16C0882311F096E911C077235E
:100A600021F09EE8872F762F05C0662371F096E867
:100A7000862F70E060E02AF09A95660F771F881F36
:100A8000DAF7880F9695879597F90895990F0008DA
:100A9000550FAA0BE0E8FEEF16161706E807F90750
:100AA000C0F012161306E407F50798F0621B730BEB
:100AB000840B950B39F40A2661F0232B242B252B6C
:100AC00021F408950A2609F4A140A6958FEF811D0F
:100AD000811D089597F99F6780E870E060E00895B0
:100AE0009FEF80EC089500240A9416161706180646
:100AF0000906089500240A94121613061406050622
:100B00000895092E0394000C11F4882352F0BB0FB2
:100B100040F4BF2B11F460FF04C06F5F7F4F8F4F15
:100B20009F4F089557FD9058440F551F59F05F3F50
:100B300071F04795880F97FB991F61F09F3F79F0FF
:100B400087950895121613061406551FF2CF469581
:100B5000F1DF08C0161617061806991FF1CF869503
:100B60007105610508940895E894BB2766277727E7
:100B7000CB0197F908950E94CE050C9481050E943F
:100B8000730538F00E947A0520F0952311F00C943B
:100B90006A050C94700511240C94B5050E94920509
:100BA00070F3959FC1F3950F50E0551F629FF001C0
:100BB000729FBB27F00DB11D639FAA27F00DB11DD9
:100BC000AA1F649F6627B00DA11D661F829F222762
:100BD000B00DA11D621F739FB00DA11D621F839FE9
:100BE000A00D611D221F749F3327A00D611D231FBF
:100BF000849F600D211D822F762F6A2F11249F570D
:100C000050409AF0F1F088234AF0EE0FFF1FBB1F0F
:100C1000661F771F881F91505040A9F79E3F5105CE
:100C200080F00C946A050C94B5055F3FE4F3983EA0
:100C3000D4F3869577956795B795F795E7959F5F78
:100C4000C1F7FE2B880F911D9695879597F908950A
:100C5000AA1BBB1B51E107C0AA1FBB1FA617B707E2
:100C600010F0A61BB70B881F991F5A95A9F78095FE
:0C0C70009095BC01CD010895F894FFCFD1
:100C7C00014E756D20476F7461733A00456E747246
:100C8C006520636F6D206F20566F6C756D653A2013
:100C9C000A00456E74726520636F6D206F20546579
:100CAC006D706F20496E667573616F20656D206D78
:100CBC00696E75746F7300466C75786F2044656649
:100CCC00696E69646F3A200044657465637461727F
:100CDC0020676F7461732E2E2E000A466C75786F28
:100CEC00205265616C20696E743A20000A4E756D55
:100CFC0020476F7461733A20000A536567756E6400
:100D0C006F733A20000A206E6F206C6F6F702E2E5E
:100D1C002E200A000A5061726F7520676F74617320
:100D2C00004572726F3A200025200A0044657365F5
:100D3C006A6120616C7465726172206F73206461EA
:100D4C00646F7320696E73657269646F735B732F64
:100D5C006E5D3F200A000A4469737420696E743A10
:100D6C0000426F6C686173206465746563746164C0
:060D7C00617321200A0052
:00000001FF
